{
  "contractName": "Lottery",
  "abi": [
    {
      "inputs": [],
      "stateMutability": "nonpayable",
      "type": "constructor"
    },
    {
      "inputs": [
        {
          "internalType": "uint256",
          "name": "",
          "type": "uint256"
        }
      ],
      "name": "lotteryHistory",
      "outputs": [
        {
          "internalType": "address payable",
          "name": "",
          "type": "address"
        }
      ],
      "stateMutability": "view",
      "type": "function",
      "constant": true
    },
    {
      "inputs": [],
      "name": "lotteryId",
      "outputs": [
        {
          "internalType": "uint256",
          "name": "",
          "type": "uint256"
        }
      ],
      "stateMutability": "view",
      "type": "function",
      "constant": true
    },
    {
      "inputs": [],
      "name": "owner",
      "outputs": [
        {
          "internalType": "address",
          "name": "",
          "type": "address"
        }
      ],
      "stateMutability": "view",
      "type": "function",
      "constant": true
    },
    {
      "inputs": [
        {
          "internalType": "uint256",
          "name": "",
          "type": "uint256"
        }
      ],
      "name": "players",
      "outputs": [
        {
          "internalType": "address payable",
          "name": "",
          "type": "address"
        }
      ],
      "stateMutability": "view",
      "type": "function",
      "constant": true
    },
    {
      "inputs": [],
      "name": "getBalance",
      "outputs": [
        {
          "internalType": "uint256",
          "name": "",
          "type": "uint256"
        }
      ],
      "stateMutability": "view",
      "type": "function",
      "constant": true
    },
    {
      "inputs": [
        {
          "internalType": "uint256",
          "name": "lottery",
          "type": "uint256"
        }
      ],
      "name": "getWinnerByLotter",
      "outputs": [
        {
          "internalType": "address payable",
          "name": "",
          "type": "address"
        }
      ],
      "stateMutability": "view",
      "type": "function",
      "constant": true
    },
    {
      "inputs": [],
      "name": "getPlayers",
      "outputs": [
        {
          "internalType": "address payable[]",
          "name": "",
          "type": "address[]"
        }
      ],
      "stateMutability": "view",
      "type": "function",
      "constant": true
    },
    {
      "inputs": [],
      "name": "getOwner",
      "outputs": [
        {
          "internalType": "address",
          "name": "",
          "type": "address"
        }
      ],
      "stateMutability": "view",
      "type": "function",
      "constant": true
    },
    {
      "inputs": [],
      "name": "enter",
      "outputs": [],
      "stateMutability": "payable",
      "type": "function",
      "payable": true
    },
    {
      "inputs": [],
      "name": "getRandomNumber",
      "outputs": [
        {
          "internalType": "uint256",
          "name": "",
          "type": "uint256"
        }
      ],
      "stateMutability": "view",
      "type": "function",
      "constant": true
    },
    {
      "inputs": [],
      "name": "pickWinner",
      "outputs": [],
      "stateMutability": "nonpayable",
      "type": "function"
    }
  ],
  "bytecode": "0x608060405234801561001057600080fd5b50336000806101000a81548173ffffffffffffffffffffffffffffffffffffffff021916908373ffffffffffffffffffffffffffffffffffffffff1602179055506001600281905550610cfd806100686000396000f3fe60806040526004361061009c5760003560e01c80638da5cb5b116100645780638da5cb5b14610176578063b314e715146101a1578063dbdff2c1146101de578063e580f47b14610209578063e97dcb6214610234578063f71d96cb1461023e5761009c565b806312065fe0146100a15780635d495aea146100cc5780636d6fe230146100e3578063893d20e8146101205780638b5b9ccc1461014b575b600080fd5b3480156100ad57600080fd5b506100b661027b565b6040516100c39190610822565b60405180910390f35b3480156100d857600080fd5b506100e1610283565b005b3480156100ef57600080fd5b5061010a6004803603810190610105919061086e565b610506565b60405161011791906108dc565b60405180910390f35b34801561012c57600080fd5b50610135610539565b6040516101429190610918565b60405180910390f35b34801561015757600080fd5b50610160610562565b60405161016d91906109f1565b60405180910390f35b34801561018257600080fd5b5061018b6105f0565b6040516101989190610918565b60405180910390f35b3480156101ad57600080fd5b506101c860048036038101906101c3919061086e565b610614565b6040516101d591906108dc565b60405180910390f35b3480156101ea57600080fd5b506101f3610651565b6040516102009190610822565b60405180910390f35b34801561021557600080fd5b5061021e6106a5565b60405161022b9190610822565b60405180910390f35b61023c6106ab565b005b34801561024a57600080fd5b506102656004803603810190610260919061086e565b610723565b60405161027291906108dc565b60405180910390f35b600047905090565b60008054906101000a900473ffffffffffffffffffffffffffffffffffffffff1673ffffffffffffffffffffffffffffffffffffffff163373ffffffffffffffffffffffffffffffffffffffff1614610311576040517f08c379a000000000000000000000000000000000000000000000000000000000815260040161030890610a70565b60405180910390fd5b6001808054905011610358576040517f08c379a000000000000000000000000000000000000000000000000000000000815260040161034f90610adc565b60405180910390fd5b6000600180549050610368610651565b6103729190610b2b565b90506001818154811061038857610387610b5c565b5b9060005260206000200160009054906101000a900473ffffffffffffffffffffffffffffffffffffffff1673ffffffffffffffffffffffffffffffffffffffff166108fc479081150290604051600060405180830381858888f193505050501580156103f8573d6000803e3d6000fd5b506001818154811061040d5761040c610b5c565b5b9060005260206000200160009054906101000a900473ffffffffffffffffffffffffffffffffffffffff1660036000600254815260200190815260200160002060006101000a81548173ffffffffffffffffffffffffffffffffffffffff021916908373ffffffffffffffffffffffffffffffffffffffff1602179055506002600081548092919061049e90610bba565b9190505550600067ffffffffffffffff8111156104be576104bd610c03565b5b6040519080825280602002602001820160405280156104ec5781602001602082028036833780820191505090505b5060019080519060200190610502929190610762565b5050565b60036020528060005260406000206000915054906101000a900473ffffffffffffffffffffffffffffffffffffffff1681565b60008060009054906101000a900473ffffffffffffffffffffffffffffffffffffffff16905090565b606060018054806020026020016040519081016040528092919081815260200182805480156105e657602002820191906000526020600020905b8160009054906101000a900473ffffffffffffffffffffffffffffffffffffffff1673ffffffffffffffffffffffffffffffffffffffff168152602001906001019080831161059c575b5050505050905090565b60008054906101000a900473ffffffffffffffffffffffffffffffffffffffff1681565b60006003600083815260200190815260200160002060009054906101000a900473ffffffffffffffffffffffffffffffffffffffff169050919050565b60008060009054906101000a900473ffffffffffffffffffffffffffffffffffffffff1642604051602001610687929190610c9b565b6040516020818303038152906040528051906020012060001c905090565b60025481565b662386f26fc1000034116106be57600080fd5b6001339080600181540180825580915050600190039060005260206000200160009091909190916101000a81548173ffffffffffffffffffffffffffffffffffffffff021916908373ffffffffffffffffffffffffffffffffffffffff160217905550565b6001818154811061073357600080fd5b906000526020600020016000915054906101000a900473ffffffffffffffffffffffffffffffffffffffff1681565b8280548282559060005260206000209081019282156107db579160200282015b828111156107da5782518260006101000a81548173ffffffffffffffffffffffffffffffffffffffff021916908373ffffffffffffffffffffffffffffffffffffffff16021790555091602001919060010190610782565b5b5090506107e891906107ec565b5090565b5b808211156108055760008160009055506001016107ed565b5090565b6000819050919050565b61081c81610809565b82525050565b60006020820190506108376000830184610813565b92915050565b600080fd5b61084b81610809565b811461085657600080fd5b50565b60008135905061086881610842565b92915050565b6000602082840312156108845761088361083d565b5b600061089284828501610859565b91505092915050565b600073ffffffffffffffffffffffffffffffffffffffff82169050919050565b60006108c68261089b565b9050919050565b6108d6816108bb565b82525050565b60006020820190506108f160008301846108cd565b92915050565b60006109028261089b565b9050919050565b610912816108f7565b82525050565b600060208201905061092d6000830184610909565b92915050565b600081519050919050565b600082825260208201905092915050565b6000819050602082019050919050565b610968816108bb565b82525050565b600061097a838361095f565b60208301905092915050565b6000602082019050919050565b600061099e82610933565b6109a8818561093e565b93506109b38361094f565b8060005b838110156109e45781516109cb888261096e565b97506109d683610986565b9250506001810190506109b7565b5085935050505092915050565b60006020820190508181036000830152610a0b8184610993565b905092915050565b600082825260208201905092915050565b7f6f6e6c7920666f72206f776e6572000000000000000000000000000000000000600082015250565b6000610a5a600e83610a13565b9150610a6582610a24565b602082019050919050565b60006020820190508181036000830152610a8981610a4d565b9050919050565b7f7468657265206973206e6f20706c617965720000000000000000000000000000600082015250565b6000610ac6601283610a13565b9150610ad182610a90565b602082019050919050565b60006020820190508181036000830152610af581610ab9565b9050919050565b7f4e487b7100000000000000000000000000000000000000000000000000000000600052601260045260246000fd5b6000610b3682610809565b9150610b4183610809565b925082610b5157610b50610afc565b5b828206905092915050565b7f4e487b7100000000000000000000000000000000000000000000000000000000600052603260045260246000fd5b7f4e487b7100000000000000000000000000000000000000000000000000000000600052601160045260246000fd5b6000610bc582610809565b91507fffffffffffffffffffffffffffffffffffffffffffffffffffffffffffffffff821415610bf857610bf7610b8b565b5b600182019050919050565b7f4e487b7100000000000000000000000000000000000000000000000000000000600052604160045260246000fd5b60008160601b9050919050565b6000610c4a82610c32565b9050919050565b6000610c5c82610c3f565b9050919050565b610c74610c6f826108f7565b610c51565b82525050565b6000819050919050565b610c95610c9082610809565b610c7a565b82525050565b6000610ca78285610c63565b601482019150610cb78284610c84565b602082019150819050939250505056fea26469706673582212209ad5d24a3e3bbe1b9276110d04003b392e9f59a8c81e7675f271eb32306467b464736f6c634300080b0033",
  "immutableReferences": {},
  "source": "// SPDX-License-Identifier: UNLICENSED\npragma solidity ^0.8.11;\n\ncontract Lottery {\n    address public owner;\n    address payable[] public players;\n    uint public lotteryId;\n    mapping (uint => address payable) public lotteryHistory; \n\n    modifier onlyOwner() {\n        require(msg.sender == owner, \"only for owner\");\n        _;\n    }\n\n    modifier isPlayerExists(){\n        require(players.length > 1, \"there is no player\");\n        _;\n    }\n\n    constructor(){\n        owner = msg.sender;\n        lotteryId = 1;\n    }\n\n    function getBalance() public view returns (uint){\n        return address(this).balance;\n    }\n\n    function getWinnerByLotter(uint lottery) public view returns (address payable) {\n        return lotteryHistory[lottery];\n    }\n\n    function getPlayers() public view returns (address payable[] memory){\n        return players;\n    }\n\n    function getOwner() public view returns(address) {\n        return owner;\n    }\n\n    function enter() public payable {\n        require(msg.value > .01 ether);\n        players.push(payable (msg.sender));\n    }\n\n    function getRandomNumber() public view returns(uint) {\n        return uint(keccak256(abi.encodePacked(owner, block.timestamp)));\n    }\n\n    function pickWinner() public onlyOwner isPlayerExists {\n        uint index = getRandomNumber() % players.length;\n        players[index].transfer(address(this).balance);\n        lotteryHistory[lotteryId] = players[index];\n        lotteryId++;\n        players = new address payable[](0);\n    }\n}",
  "sourcePath": "C:\\Users\\user\\Desktop\\express-calismalari\\lottery\\lottery\\contracts\\Lottery.sol",
  "compiler": {
    "name": "solc",
    "version": "0.8.11+commit.d7f03943.Emscripten.clang"
  },
  "schemaVersion": "3.4.4",
  "updatedAt": "2022-07-16T16:46:16.112Z",
  "networkType": "ethereum",
  "devdoc": {
    "kind": "dev",
    "methods": {},
    "version": 1
  },
  "userdoc": {
    "kind": "user",
    "methods": {},
    "version": 1
  }
}